:10000000E2C300000AC4000008C4000006C40000E7
:1000100004C4000002C4000000C40000FEC30000CD
:10002000FCC30000FAC30000F8C30000F6C30000E0
:10003000F4C30000F2C30000F0C30000EEC30000F0
:10004000ECC30000EAC30000E9C30000E6C30000FF
:10005000B4C400001EC50000E0C30000DEC3000001
:10006000DCC30000DAC30000D8C30000D6C3000020
:10007000D4C3000082C50000D0C30000CEC300007E
:10008000CCC30000CAC30000C8C300001F2C1D2C35
:100090001D2C1D2C1D2C1D2C1D2C1D2C1D2C1D2C18
:1000A0001D2C1D2C1D2C1D2C1D2C1D2C1F2C1D2C06
:1000B0001D2C1D2C1D2C1D2C1D2C1D2C1D2C1D2CF8
:1000C0001D2C1D2C1D2C1D2C1D2C1D2C1F2C1D2CE6
:1000D0001D2C1D2C1D2C1D2C1D2C1D2C1D2C1D2CD8
:1000E0001D2C1D2C1D2C1D2C1D2C1D2C1F2C1D2CC6
:1000F0001D2C1D2C1D2C1D2C1D2C1D2C1D2C1D2CB8
:100100001D2C1D2C1D2C1D2C1D2C1D2C1B2C1D2CA9
:100110001D2C1D2C1D2C1D2C1D2C1D2C1D2C1D2C97
:100120001D2C1D2C1D2C1D2C1D2C1D2C1B2C1D2C89
:100130001D2C1D2C1D2C1D2C1D2C1D2C1D2C1D2C77
:100140001D2C1D2C1D2C1D2C1D2C1D2C1F2C1D2C65
:100150001D2C1D2C1D2C1D2C1D2C1D2C1D2C1D2C57
:100160001D2C1D2C1D2C1D2C1D2C1D2C212C1B2C45
:100170001F2C1B2C1D2C1D2C252C1D2C252C1D2C27
:10018000252C252C252C1D2C252C252CAB2DA92DE3
:10019000A92DA92DA92DA92DA92DA92DA92DA92DAF
:1001A000A92DA92DA92DA92DA92DA92DAB2DA92D9D
:1001B000A92DA92DA92DA92DA92DA92DA92DA92D8F
:1001C000A92DA92DA92DA92DA92DA92DAB2DA92D7D
:1001D000A92DA92DA92DA92DA92DA92DA92DA92D6F
:1001E000A92DA92DA92DA92DA92DA92DAB2DA92D5D
:1001F000A92DA92DA92DA92DA92DA92DA92DA92D4F
:10020000A92DA92DA92DA92DA92DA92DA72DA92D40
:10021000A92DA92DA92DA92DA92DA92DA92DA92D2E
:10022000A92DA92DA92DA92DA92DA92DA72DA92D20
:10023000A92DA92DA92DA92DA92DA92DA92DA92D0E
:10024000A92DA92DA92DA92DA92DA92DAB2DA92DFC
:10025000A92DA92DA92DA92DA92DA92DA92DA92DEE
:10026000A92DA92DA92DA92DA92DA92DAD2DA72DDC
:10027000AB2DA72DA92DA92DB12DA92DB12DA92DBE
:10028000B12DB12DB12DA92DB12DB12DFF346C356E
:10029000DE354E36BC3627372737E737E537E537C3
:1002A000E537E537E537E537E537E537E537E5376E
:1002B000E537E537E537E537E537E737E537E5375C
:1002C000E537E537E537E537E537E537E537E5374E
:1002D000E537E537E537E537E537E737E537E5373C
:1002E000E537E537E537E537E537E537E537E5372E
:1002F000E537E537E537E537E537E737E537E5371C
:10030000E537E537E537E537E537E537E537E5370D
:10031000E537E537E537E537E537E337E537E537FF
:10032000E537E537E537E537E537E537E537E537ED
:10033000E537E537E537E537E537E337E537E537DF
:10034000E537E537E537E537E537E537E537E537CD
:10035000E537E537E537E537E537E737E537E537BB
:10036000E537E537E537E537E537E537E537E537AD
:10037000E537E537E537E537E537E937E337E73799
:10038000E337E537E537ED37E537ED37E537ED3777
:10039000ED37ED37E537ED37ED372439223922399E
:1003A0002239223922392239223922392239223975
:1003B0002239223922392239223924392239223963
:1003C0002239223922392239223922392239223955
:1003D0002239223922392239223924392239223943
:1003E0002239223922392239223922392239223935
:1003F0002239223922392239223924392239223923
:100400002239223922392239223922392239223914
:100410002239223922392239223920392239223906
:1004200022392239223922392239223922392239F4
:1004300022392239223922392239203922392239E6
:1004400022392239223922392239223922392239D4
:1004500022392239223922392239243922392239C2
:1004600022392239223922392239223922392239B4
:1004700022392239223922392239263920392439A0
:100480002039223922392A3922392A3922392A397E
:100490002A392A3922392A392A392A30B83EB83E2F
:1004A000B83EB83EB83EB83EB83EB83EB83EB83E9C
:1004B000B83EB83EB83EB83EB83E2A30B83EB83E28
:1004C000B83EB83EB83EB83EB83EB83EB83EB83E7C
:1004D000B83EB83EB83EB83EB83E2A30B83EB83E08
:1004E000B83EB83EB83EB83EB83EB83EB83EB83E5C
:1004F000B83EB83EB83EB83EB83E2A30B83EB83EE8
:10050000B83EB83EB83EB83EB83EB83EB83EB83E3B
:10051000B83EB83EB83EB83EB83E1130B83EB83EE0
:10052000B83EB83EB83EB83EB83EB83EB83EB83E1B
:10053000B83EB83EB83EB83EB83E1130B83EB83EC0
:10054000B83EB83EB83EB83EB83EB83EB83EB83EFB
:10055000B83EB83EB83EB83EB83E2A30B83EB83E87
:10056000B83EB83EB83EB83EB83EB83EB83EB83EDB
:10057000B83EB83EB83EB83EB83EC93E11302A300B
:100580001130B83EB83E4530B83E4530B83E4530F3
:1005900045304530B83E45304530DD30E73EE73E3A
:1005A000E73EE73EE73EE73EE73EE73EE73EE73E23
:1005B000E73EE73EE73EE73EE73EDD30E73EE73E2B
:1005C000E73EE73EE73EE73EE73EE73EE73EE73E03
:1005D000E73EE73EE73EE73EE73EDD30E73EE73E0B
:1005E000E73EE73EE73EE73EE73EE73EE73EE73EE3
:1005F000E73EE73EE73EE73EE73EDD30E73EE73EEB
:10060000E73EE73EE73EE73EE73EE73EE73EE73EC2
:10061000E73EE73EE73EE73EE73EC530E73EE73EE2
:10062000E73EE73EE73EE73EE73EE73EE73EE73EA2
:10063000E73EE73EE73EE73EE73EC530E73EE73EC2
:10064000E73EE73EE73EE73EE73EE73EE73EE73E82
:10065000E73EE73EE73EE73EE73EDD30E73EE73E8A
:10066000E73EE73EE73EE73EE73EE73EE73EE73E62
:10067000E73EE73EE73EE73EE73EDD3EC530DD30A4
:10068000C530E73EE73EBD31E73EBD31E73EBD3117
:10069000BD31BD31E73EBD31BD312731023F023FA3
:1006A000023F023F023F023F023F023F023F023F42
:1006B000023F023F023F023F023F2731023F023F1B
:1006C000023F023F023F023F023F023F023F023F22
:1006D000023F023F023F023F023F2731023F023FFB
:1006E000023F023F023F023F023F023F023F023F02
:1006F000023F023F023F023F023F2731023F023FDB
:10070000023F023F023F023F023F023F023F023FE1
:10071000023F023F023F023F023F0F31023F023FD2
:10072000023F023F023F023F023F023F023F023FC1
:10073000023F023F023F023F023F0F31023F023FB2
:10074000023F023F023F023F023F023F023F023FA1
:10075000023F023F023F023F023F2731023F023F7A
:10076000023F023F023F023F023F023F023F023F81
:10077000023F023F023F023F023FF83E0F31273166
:100780000F31023F023FBF31023FBF31023FBF3155
:10079000BF31BF31023FBF31BF3128432920436100
:1007A0006E6E656420427974657320323031370093
:1007B0004D494449204D61737465722076302E3165
:1007C00000003106A64011241FBECFEFD0E4DEBFEB
:1007D000CDBF12E0A0E0B1E0E8E3F4E800E00BBF39
:1007E00002C007900D92AA30B107D9F729E0AAE01C
:1007F000B2E001C01D92AD3BB207E1F713E0C3EEDA
:10080000D3E004C02197FE010E94EA41C13ED10716
:10081000C9F70E949D400C941A42F2CB1F920F928E
:100820000FB60F9211240F931F932F933F934F9363
:100830005F936F937F938F939F93AF93BF93009139
:100840000F0210911002209111023091120280913A
:100850000A0290E0A0E0B0E0AC01BD014A595F4F50
:100860006F4F7F4F4D3751056105710550F0AC0159
:10087000BD0147515109610971090F5F1F4F2F4F8A
:100880003F4F00930F0210931002209311023093F8
:10089000120240930A0280910B0290910C02A091E7
:1008A0000D02B0910E020196A11DB11D80930B02A5
:1008B00090930C02A0930D02B0930E02BF91AF91E2
:1008C0009F918F917F916F915F914F913F912F9168
:1008D0001F910F910F900FBE0F901F901895CF93FF
:1008E000DF9300D000D0CDB7DEB7A4E6B0E08C91A6
:1008F0008D7F8C9347E250E05093C5004093C40035
:100900001092C000E1ECF0E0108266E06093C2005B
:10091000809108018C838C81208190E08095909556
:1009200030E08223932380838C819081892B808384
:10093000809107018B838B81208190E08095909539
:1009400030E08223932380838B819081892B808365
:100950008C918F7E8C935093CD004093CC0010925D
:10096000C800A9ECB0E01C926093CA008091070116
:100970008A838A812C9190E08095909530E0822343
:1009800093238C938A819C91892B8C93809106016F
:1009900089838981208190E08095909530E0822341
:1009A0009323808389819081892B80830F900F907E
:1009B0000F900F90DF91CF9108951F920F920FB675
:1009C0000F9211240BB60F922F933F938F939F9307
:1009D000AF93BF93EF93FF938091C00084FD32C02B
:1009E0008091C00082FD30C08091C00083FD2EC088
:1009F0008091C10082FD38C02FC08091C10081FD6F
:100A000003C080E090E002C080E091E03091C60039
:100A1000211130C0832B982F809109048F5F81347E
:100A200008F080E020910A04281721F1A9E0B4E041
:100A3000EC91F0E0EC55FC4F94A38C931BC080919B
:100A4000C60018C023E003C024E001C022E080916A
:100A5000C10082FDD2CFF3CF8091C600DCCF3091B0
:100A6000C60080E091E0D6CF8091C10081FDF7CF34
:100A700020E0C7CFFF91EF91BF91AF919F918F91F0
:100A80003F912F910F900BBE0F900FBE0F901F90B4
:100A900018951F920F920FB60F9211240BB60F925A
:100AA0002F933F934F938F939F93AF93BF93EF9366
:100AB000FF93CF93DF9300D0CDB7DEB7E4EAF3E046
:100AC00091A182A1981720F081A192A1891B06C053
:100AD000E4EAF3E081A192A18F5D891B882359F19B
:100AE000A4EAB3E09296EC919297F0E0EC55FC4FBB
:100AF000408192968C9192978F5F92968C93929769
:100B000092968C91813210F01092C6038091C100B0
:100B100082FF0EC0809105018A838A81E1ECF0E0BA
:100B2000208190E08095909530E08223932380830C
:100B30004093C6000EC08091040189838981E1EC55
:100B4000F0E0208190E08095909530E0822393231F
:100B500080830F900F90DF91CF91FF91EF91BF9124
:100B6000AF919F918F914F913F912F910F900BBE1D
:100B70000F900FBE0F901F9018951F920F920FB6F7
:100B80000F9211240BB60F922F933F934F938F9395
:100B90009F93AF93BF93EF93FF93CF93DF9300D0D7
:100BA000CDB7DEB7EFE7F3E091A182A1981720F06F
:100BB00081A192A1891B06C0EFE7F3E081A192A178
:100BC0008F5D891B882359F1AFE7B3E09296EC91D2
:100BD0009297F0E0E158FC4F408192968C91929769
:100BE0008F5F92968C93929792968C91813210F0AF
:100BF0001092A1038091C90082FF0EC0809105016F
:100C00008A838A81E9ECF0E0208190E080959095DC
:100C100030E08223932380834093CE000EC08091E6
:100C2000040189838981E9ECF0E0208190E08095DE
:100C3000909530E08223932380830F900F90DF9173
:100C4000CF91FF91EF91BF91AF919F918F914F9174
:100C50003F912F910F900BBE0F900FBE0F901F90E2
:100C60001895FF920F931F93CF93DF93C2E1D4E0C7
:100C700002ED18E06894FF24F4F8FE018F2D119224
:100C80008A95E9F7AE01485B5E4FBE0168567C4F1E
:100C9000CA0188529140FC017097108231961082EF
:100CA0003396108233961082359610829C01285E0E
:100CB0003F4FFC01DF0113971C9211961C92119675
:100CC0001C9210823696E217F307A1F78596481713
:100CD000590709F7485D5E4F46175707C9F6C05ACE
:100CE000DD4FC017D10749F6E4EAF3E011A212A2E2
:100CF00013A21092090410920A0410920B0410928D
:100D00000C0410920D0410920E0410920F0481E056
:100D10008093100410921104EFE7F3E011A212A2E5
:100D200013A210927E03209123023091240240915D
:100D3000250250912602609127027091280280912D
:100D4000290290912A02A1E00E94F34120932302FC
:100D50003093240240932502509326026093270289
:100D6000709328028093290290932A020E94FF41E7
:100D700031F4E8E7F3E010821182128213822091AD
:100D80001B0230911C0240911D0250911E02609185
:100D90001F02709120028091210290912202A1E015
:100DA0000E94F34120931B0230931C0240931D02CA
:100DB00050931E0260931F027093200280932102C1
:100DC000909322020E94FF41C1F5E3E5F3E0108217
:100DD0001182148217821486E3E6F3E08BE793E036
:100DE000DF0113971C9211961C9211961C9210828F
:100DF0003696E817F907A1F720C0FC01709710821A
:100E00003196108233961082339610823596108276
:100E10009C01285E3F4FFC01DF0113971C92119645
:100E20001C9211961C92108236962E173F07A1F73E
:100E300085968417950709F72BC0209113023091EE
:100E400014024091150250911602609117027091A0
:100E500018028091190290911A02A1E00E94F341B8
:100E600020931302309314024093150250931602FC
:100E700060931702709318028093190290931A02DC
:100E80000E94FF4129F48BE392E043E653E0B5CFA3
:100E9000DF91CF911F910F91FF90089508950895CC
:100EA000089581E060FF80E0089521E0FC018281E7
:100EB000861301C020E0822F089561FD05C081E006
:100EC00060FD03C080E0089581E00895FC01828107
:100ED000861769F0633039F49FEF980F21E0923064
:100EE00018F020E001C020E081E08227089580E032
:100EF0000895DC0116968D919C911797009739F013
:100F0000DC01ED91FC910190F081E02D09950895AF
:100F1000862F8370833049F061FD05C081E060FD5C
:100F200005C080E0089581E0089581E0089564306F
:100F300099F0FC018281681769F0633039F49FEF02
:100F4000980F21E0923018F020E001C020E081E00D
:100F50008227089580E0089580E008954130E1F00F
:100F6000CB0120917E03322F3E7F30937E0320FF02
:100F70000AC0DB01ED91FC910190F081E02D62E16E
:100F800071E009950895DB01ED91FC910190F081EC
:100F9000E02D65E271E00995089562FD0FC0862F8E
:100FA0008370833049F061FD05C081E060FD07C0BA
:100FB00080E0089581E0089581E0089581E008953A
:100FC000CF92DF92EF92FF920F931F93CF93DF9315
:100FD0007C018B01D42F413049F0DC0152968D9178
:100FE0009C915397181619067CF04AC0FC01868123
:100FF0009781009709F444C0DC01ED91FC910190C8
:10100000F081E02D09953CC020E030E0C0E02817D9
:1010100039072CF0C090D308D090D4080EC0C5304A
:1010200028F0C090D308D090D40807C0220F331FF7
:10103000F701E20FF31FC084D184F6018281813071
:10104000B1F0D801ED91FC910280F381E02DD60141
:1010500013964C916FEFC8010995D601ED91FC9163
:101060000190F081E02D4D2FB801C6010995CF5FA9
:101070002C2F30E0F70182899389281739073CF239
:10108000DF91CF911F910F91FF90EF90DF90CF9064
:101090000895653051F48091D5089091D608FC01EF
:1010A000E158FF4F0E969183808380E0089565306C
:1010B00051F48091D5089091D608FC01E158FF4F7A
:1010C0000E969183808380E00895653051F480917D
:1010D000D5089091D608FC01E158FF4F0E969183F8
:1010E000808380E00895653051F48091D508909117
:1010F000D608FC01E158FF4F0E969183808380E073
:101100000895653051F48091D5089091D608FC017E
:10111000E158FF4F0E969183808380E008956530FB
:1011200051F48091D5089091D608FC01E158FF4F09
:101130000E969183808380E00895653051F480910C
:10114000D5089091D608FC01E158FF4F0E96918387
:10115000808380E00895653051F48091D5089091A6
:10116000D608FC01E158FF4F0E969183808380E002
:101170000895CF92DF92EF92FF920F931F93CF9338
:10118000DF937C018B01D42F413049F0DC0156966E
:101190008D919C915797181619067CF04AC0FC0156
:1011A00086819781009709F444C0DC01ED91FC91A0
:1011B0000190F081E02D09953CC020E030E0C0E0D6
:1011C000281739072CF0C090D308D090D4080EC04F
:1011D000C73028F0C090D308D090D40807C0220FA1
:1011E000331FF701E20FF31FC084D184F60182811F
:1011F0008130B1F0D801ED91FC910280F381E02DB6
:10120000D60113964C916FEFC8010995D601ED9167
:10121000FC910190F081E02D4D2FB801C601099598
:10122000CF5F2C2F30E0F70186899789281739077F
:101230003CF2DF91CF911F910F91FF90EF90DF90E3
:10124000CF900895CF93DF93FC01CB01411110C0E3
:101250000680F781E02D6085718561157105C9F003
:10126000DC01ED91FC910190F081E02D099511C018
:10127000413079F42281243061F4EB01A881B981F5
:1012800044852381420F1296ED91FC9113976FEFE5
:101290000995DF91CF910895CF93DF93DC011296EA
:1012A0002C9112976217B9F06330D9F42150223093
:1012B000A0F01C961C9281E017C0EC011C86E8850A
:1012C000F985309761F0AA85BB85808190E08D9388
:1012D0009C9381E009C080E007C080E005C081E008
:1012E00003C0643051F381E0DF91CF910895CF9234
:1012F000DF92EF92FF920F931F93CF93DF93CDB7BF
:10130000DEB72B970FB6F894DEBF0FBECDBF8B01B3
:101310004130A9F4DC0112962C912350223008F0C0
:1013200089C0DB01ED91FC91DC0113964C914F5F7C
:101330000280F381E02D6FEFC80109957BC0411158
:1013400079C0FC01E680F780E0910D09F0910E096B
:1013500024812F5FD701D5961C921E92D49730E03E
:10136000409100011B86423008F44AE0FE013B96A2
:10137000C42ED12CC901B6010E94D641469F201926
:10138000112431972A3010F4205D01C0295C20839C
:10139000262F372F2115310569F7DF01CF018C1B6F
:1013A0009D0B099718161906B4F4CE0101968E17F5
:1013B0009F0788F460E3AC0128EF3FEF281B390B4F
:1013C0006293CF01820F931F181619068CF5E4174C
:1013D000F507B1F72DC02C912223E9F03196D70102
:1013E000D4968D919C91D597823091058CF4833061
:1013F000910520F4A80FB91FD1962C93D701D4964C
:101400008D919C91D5970196D5969C938E93D49768
:1014100021912111E4CFB7016F5C7F4F59F0D801C2
:10142000ED91FC910190F081E02DC801099502C079
:101430002081D4CF2B960FB6F894DEBF0FBECDBF60
:10144000DF91CF911F910F91FF90EF90DF90CF90A0
:101450000895CF93DF93613009F44CC0623009F0F6
:1014600092C0FC0132972081243009F0BCC0DC011D
:101470001296ED91FC911397A0910D09B0910E0970
:1014800014968C9114978F5F823098F440E652E066
:10149000849F9001859F300D11244D915C9111978F
:1014A000240F351F13963C932E93129714968C930A
:1014B000149712962D913C911397A90131A720A75B
:1014C00081E02115310509F080E0819584A7452B45
:1014D00009F497C0803118F08091D20804C0D90176
:1014E000A80FB11D8C9102A4F3A5E02D90E091838B
:1014F000808387C0FC0132972081243009F075C0B9
:10150000DC011296ED91FC911397A0910D09B09119
:101510000E0914968C9114978150823098F440E60D
:1015200052E0849F9001859F300D11244D915C9174
:101530001197240F351F13963C932E9312971496F0
:101540008C93149712962D913C911397A90131A772
:1015500020A781E02115310509F080E0819584A75D
:10156000452B09F44EC0803118F08091D20804C098
:10157000D901A80FB11D8C9102A4F3A5E02D90E034
:10158000918380833EC0EC01653019F06630B1F084
:101590002EC0FC0132978081833059F5CE0104972B
:1015A000DC01ED91FC910480F581E02D64E009956A
:1015B000882309F1229794E0988324C0FC01329794
:1015C00080818430D1F4CE010497DC01ED91FC914F
:1015D0000480F581E02D63E00995882381F022974E
:1015E00093E098830FC080E00DC080E00BC080E0E6
:1015F00009C080E007C081E005C080E003C081E051
:1016000001C081E0DF91CF910895CF93DF93EC018A
:10161000613009F447C0623009F088C08A818430A3
:1016200009F0B7C0EE81FF81A0910D09B0910E09BC
:1016300014968C9114978F5F823098F440E652E0B4
:10164000849F9001859F300D11244D915C911197DD
:10165000240F351F13963C932E93129714968C9358
:10166000149712962D913C911397A90131A720A7A9
:1016700081E02115310509F080E0819584A7452B93
:1016800009F485C0803118F08091D20804C0D901D6
:10169000A80FB11D8C9102A4F3A5E02D90E09183D9
:1016A000808375C08A81843009F073C0EE81FF8128
:1016B000A0910D09B0910E0914968C911497815048
:1016C000823098F440E652E0849F9001859F300D6F
:1016D00011244D915C911197240F351F13963C9363
:1016E0002E93129714968C93149712962D913C91E9
:1016F0001397A90131A720A781E02115310509F031
:1017000080E0819584A7452B09F441C0803118F011
:101710008091D20804C0D901A80FB11D8C9102A4F8
:10172000F3A5E02D90E09183808331C0653019F0FE
:10173000663089F020C08A818330F9F4E881F9812C
:101740000480F581E02D64E0CE0109958823B9F08D
:1017500094E09A8321C08A81843099F4E881F981E8
:101760000480F581E02D63E0CE010995882359F0CE
:1017700093E09A8311C080E00FC080E00DC081E04B
:101780000BC080E009C081E007C080E005C081E0B7
:1017900003C06530D1F7CFCFDF91CF910895CF92BD
:1017A000DF92EF92FF920F931F93CF93DF937C0111
:1017B0008B01D0E0DC011C968D919C911D97181631
:1017C0001906E4F5C0E020E030E0281739072CF0D6
:1017D000C090D308D090D4080EC0C23028F0C0907A
:1017E000D308D090D40807C0220F331FF701E20FAF
:1017F000F31FC084D184F60182818130B1F0D80119
:10180000ED91FC910280F381E02D40E0D60113962A
:101810006C91C8010995D601ED91FC910190F08180
:10182000E02D4D2FB801C6010995CF5F2C2F30E078
:10183000F70184859585281739073CF2F701A681C1
:10184000B781109731F11696CD91DC9117972097BB
:1018500001F18A81833011F08430D9F4F80140819C
:10186000518121E08A81843009F020E0FA01E4808E
:10187000F5804B8113966C91C801F7010995E881B9
:10188000F9810190F081E02D41E0B801CE01099588
:101890000BC0D801ED91FC910480F581E02D20E092
:1018A0004FEF6FEFC8010995DF91CF911F910F9115
:1018B000FF90EF90DF90CF900895CF93DF93633048
:1018C00019F0643069F154C0DC0112962C91129722
:1018D000243009F04DC01C962C911C97222309F44A
:1018E000F9C021501C962C931C9718964D915C9131
:1018F00019974115510509F4EDC0203118F02091D8
:10190000D20804C0FA01E20FF11D2081DC011A9611
:10191000ED91FC911B97822F90E091838083DAC038
:10192000FC012281243021F52485422F50E04F5FB5
:101930005F4F4F3051050CF0CDC02F5F248740859D
:1019400051854115510509F4C5C0203118F0209189
:10195000D20804C0FA01E20FF11D2081DC011A96C1
:10196000ED91FC911B97822F90E091838083B2C010
:101970006130F1F1623009F079C0FC01228124303C
:1019800009F09AC00680F781E02D80859185892B2A
:1019900041F1A285B3858D919C9111979C012F5F98
:1019A0003F4F4F9780369105E0F42D933C93A285ED
:1019B000B3858D919C919C012052310920363105CF
:1019C00018F02091D20801C0282F408551859485B8
:1019D000892F90E08031910520F4FA01E80FF91F7A
:1019E0002083E0910D09F0910E0981E0858374C098
:1019F000DC0112962C911297243009F05FC01696E4
:101A0000ED91FC91179780859185892B41F1A285F5
:101A1000B3858D919C9111979C012150310981973B
:101A200080369105E0F42D933C93A285B3858D918A
:101A30009C919C01205231092036310518F02091EB
:101A4000D20801C0282F408551859485892F90E0C8
:101A50008031910520F4FA01E80FF91F2083E0910D
:101A60000D09F0910E0981E0858336C0EC016530E7
:101A700019F0663089F024C08A81833019F5E88135
:101A8000F9810480F581E02D64E0CE010995882379
:101A9000D9F094E09A8321C08A818430B9F4E88136
:101AA000F9810480F581E02D63E0CE01099588235A
:101AB00079F093E09A8311C080E00FC080E00DC000
:101AC00080E00BC080E009C081E007C080E005C075
:101AD00081E003C081E001C081E0DF91CF910895F2
:101AE000CF93DF93633019F0643049F154C0FC01A7
:101AF00032972081243009F0D0C0DC0118962C9157
:101B0000222309F408C1215032972487408551854A
:101B10004115510509F4FFC0203118F02091D20879
:101B200004C0FA01E20FF11D2081DC011696ED914F
:101B3000FC911797822F90E091838083ECC0FC0189
:101B400032972081243009F0A8C0FC012085422F63
:101B500050E04F5F5F4F4F3051050CF0DCC02F5FFE
:101B600034972487408551854115510509F4D3C028
:101B7000203118F02091D20804C0FA01E20FF11DC3
:101B80002081DC011696ED91FC911797822F90E051
:101B900091838083C0C0613009F441C0623009F094
:101BA0007CC0FC0132972081243009F0A6C0DC0102
:101BB0001296ED91FC91139780859185892B41F1C7
:101BC000A285B3858D919C9111979C012F5F3F4F0A
:101BD0004F9780369105E0F42D933C93A285B38511
:101BE0008D919C919C01205231092036310518F0CD
:101BF0002091D20801C0282F408551859485892FD6
:101C000090E08031910520F4FA01E80FF91F20835C
:101C1000E0910D09F0910E0981E085837EC0FC0101
:101C200032972081243009F06AC0DC011296ED91D0
:101C3000FC91139780859185892B41F1A285B3850D
:101C40008D919C9111979C0121503109819780368B
:101C50009105E0F42D933C93A285B3858D919C91E1
:101C60009C01205231092036310518F02091D2080C
:101C700001C0282F408551859485892F90E08031BF
:101C8000910520F4FA01E80FF91F2083E0910D0976
:101C9000F0910E0981E0858340C0EC01653019F0B8
:101CA0006630B1F02EC0FC0132978081833059F547
:101CB000CE010497DC01ED91FC910480F581E02DCB
:101CC00064E00995882309F1229794E0988326C05F
:101CD000FC01329780818430D1F4CE010497DC017D
:101CE000ED91FC910480F581E02D63E00995882356
:101CF00081F0229793E0988311C080E00FC080E0CC
:101D00000DC080E00BC080E009C081E007C080E02A
:101D100005C081E003C081E001C081E0DF91CF9187
:101D20000895FC016F3F09F461854F3F09F4428536
:101D300061874287623008F060E0E62FF0E0E75FFD
:101D4000FE4F8081480F1698842F806890E095950B
:101D50008795959587959595879595958795179AE4
:101D600080FF02C0289A01C0289881FF02C0299AEA
:101D700001C0299882FF02C02A9A01C02A982B9A92
:101D80001798179A40FF02C0289A01C0289841FF6F
:101D900002C0299A01C0299842FF02C02A9A01C0B4
:101DA0002A9843FF02C02B9A01C02B98179886EF00
:101DB0008A95F1F70895EF92FF920F931F93CF93B7
:101DC000DF93CDB7DEB72F970FB6F894DEBF0FBE07
:101DD000CDBF413009F4ADC08B01DB01ED91FC9129
:101DE0000190F081E02D64E171E0C80109958091D6
:101DF0007E03982F9F7E90937E0384FF0BC0D801B3
:101E0000ED91FC910190F081E02D6DE071E0C80151
:101E100009958FC01D861C861F861E864091000175
:101E20004A3009F51B8684E38A8724E3EAE0F0E080
:101E3000EC0FFD1F31968E859F85181619067CF0D4
:101E40008230910538F4ACE0B0E0AC0FBD1FA80FB4
:101E5000B91F2C938E859F8501969F878E87219130
:101E60002111E9CF58C01B86423008F44AE0FE0138
:101E70003B9624E030E0E42EF12CC901B7010E942A
:101E8000D641469F2019112431972A3010F4205D45
:101E900001C0295C2083262F372F2115310569F7D2
:101EA000DF01CE010B969F01281B390BC9011816C3
:101EB0001906B4F4CE0101968E179F0788F460E3EB
:101EC000AC0126EF3FEF281B390B6293CF01820F45
:101ED000931F181619065CF5E417F507B1F727C02C
:101EE0002C912223C1F031968E859F8518161906F4
:101EF0007CF08230910538F4ACE0B0E0AC0FBD1F4F
:101F0000A80FB91F2C938E859F8501969F878E877A
:101F100021912111E9CFD801ED91FC910190F0813F
:101F2000E02DBE01645F7F4FC801099502C020818A
:101F3000DACF2F960FB6F894DEBF0FBECDBFDF917C
:101F4000CF911F910F91FF90EF900895EF92FF9224
:101F50000F931F93CF93DF93CDB7DEB72F970FB6B5
:101F6000F894DEBF0FBECDBF413009F4ADC08B0188
:101F7000DB01ED91FC910190F081E02D64E171E0D5
:101F8000C801099580917E03982F9D7F90937E03D1
:101F900081FF0BC0D801ED91FC910190F081E02D03
:101FA0006DE071E0C80109958FC01D861C861F86F3
:101FB0001E86409100014A3009F51B8681E38A871D
:101FC00021E3EAE0F0E0EC0FFD1F31968E859F855E
:101FD000181619067CF08230910538F4ACE0B0E0B8
:101FE000AC0FBD1FA80FB91F2C938E859F8501963E
:101FF0009F878E8721912111E9CF58C01B864230DF
:1020000008F44AE0FE013B9621E030E0E42EF12C9A
:10201000C901B7010E94D641469F2019112431976A
:102020002A3010F4205D01C0295C2083262F372F31
:102030002115310569F7DF01CE010B969F01281BA1
:10204000390BC90118161906B4F4CE0101968E1782
:102050009F0788F460E3AC0126EF3FEF281B390BA4
:102060006293CF01820F931F181619065CF5E417CF
:10207000F507B1F727C02C912223C1F031968E8548
:102080009F85181619067CF08230910538F4ACE073
:10209000B0E0AC0FBD1FA80FB91F2C938E859F8594
:1020A00001969F878E8721912111E9CFD801ED916B
:1020B000FC910190F081E02DBE01645F7F4FC8016B
:1020C000099502C02081DACF2F960FB6F894DEBFB3
:1020D0000FBECDBFDF91CF911F910F91FF90EF9079
:1020E0000895EF92FF920F931F93CF93DF93CDB795
:1020F000DEB72F970FB6F894DEBF0FBECDBF4130CD
:1021000009F4ADC08B01DB01ED91FC910190F081F0
:10211000E02D64E171E0C801099580917E03982F5C
:10212000977F90937E0383FF0BC0D801ED91FC91C4
:102130000190F081E02D6DE071E0C80109958FC03C
:102140001D861C861F861E86409100014A3009F5B7
:102150001B8683E38A8723E3EAE0F0E0EC0FFD1FB0
:1021600031968E859F85181619067CF08230910570
:1021700038F4ACE0B0E0AC0FBD1FA80FB91F2C9332
:102180008E859F8501969F878E8721912111E9CFAA
:1021900058C01B86423008F44AE0FE013B9623E01B
:1021A00030E0E42EF12CC901B7010E94D641469FD0
:1021B0002019112431972A3010F4205D01C0295CC8
:1021C0002083262F372F2115310569F7DF01CE0136
:1021D0000B969F01281B390BC90118161906B4F478
:1021E000CE0101968E179F0788F460E3AC0126EFBD
:1021F0003FEF281B390B6293CF01820F931F1816F4
:1022000019065CF5E417F507B1F727C02C912223D6
:10221000C1F031968E859F85181619067CF08230A4
:10222000910538F4ACE0B0E0AC0FBD1FA80FB91FAA
:102230002C938E859F8501969F878E8721912111F2
:10224000E9CFD801ED91FC910190F081E02DBE0124
:10225000645F7F4FC801099502C02081DACF2F96B5
:102260000FB6F894DEBF0FBECDBFDF91CF911F91A7
:102270000F91FF90EF900895EF92FF920F931F93AD
:10228000CF93DF93CDB7DEB72F970FB6F894DEBFAD
:102290000FBECDBF413009F4ADC08B01DB01ED9124
:1022A000FC910190F081E02D64E171E0C801099595
:1022B00080917E03982F9B7F90937E0382FF0BC0BB
:1022C000D801ED91FC910190F081E02D6DE071E07D
:1022D000C80109958FC01D861C861F861E864091E9
:1022E00000014A3009F51B8682E38A8722E3EAE08F
:1022F000F0E0EC0FFD1F31968E859F8518161906AC
:102300007CF08230910538F4ACE0B0E0AC0FBD1F3A
:10231000A80FB91F2C938E859F8501969F878E8766
:1023200021912111E9CF58C01B86423008F44AE0C0
:10233000FE013B9622E030E0E42EF12CC901B7010A
:102340000E94D641469F2019112431972A3010F45B
:10235000205D01C0295C2083262F372F21153105F0
:1023600069F7DF01CE010B969F01281B390BC901CC
:1023700018161906B4F4CE0101968E179F0788F43B
:1023800060E3AC0126EF3FEF281B390B6293CF01CE
:10239000820F931F181619065CF5E417F507B1F7BD
:1023A00027C02C912223C1F031968E859F85181667
:1023B00019067CF08230910538F4ACE0B0E0AC0F47
:1023C000BD1FA80FB91F2C938E859F8501969F87EF
:1023D0008E8721912111E9CFD801ED91FC910190D7
:1023E000F081E02DBE01645F7F4FC801099502C0F6
:1023F0002081DACF2F960FB6F894DEBF0FBECDBF87
:10240000DF91CF911F910F91FF90EF900895CF939F
:10241000DF93FC01DB019C91992309F4EDC0EB01F2
:10242000219646EF50E09A3009F04DC0A1858A2FE1
:1024300090E00196039724F011869285A52F06C09F
:10244000AF5FA1879285A23008F0A52FB0E0A75F0B
:10245000BE4F8C91890F1698282F206830E0359553
:102460002795359527953595279535952795179A6D
:1024700020FF02C0289A01C0289821FF02C0299A93
:1024800001C0299822FF02C02A9A01C02A982B9ADB
:102490001798179A80FF02C0289A01C0289881FFD8
:1024A00002C0299A01C0299882FF02C02A9A01C05D
:1024B0002A9883FF02C02B9A01C02B981798842F6B
:1024C0008A95F1F796C09D3009F041C01286A1852A
:1024D000A23008F0A52FB0E0A75FBE4F2C91169850
:1024E000822F806890E0959587959595879595952D
:1024F000879595958795179A80FF02C0289A01C005
:10250000289881FF02C0299A01C0299882FF02C041
:102510002A9A01C02A982B9A1798179A20FF02C06E
:10252000289A01C0289821FF02C0299A01C0299841
:1025300022FF02C02A9A01C02A9823FF02C02B9AC8
:1025400001C02B981798842F8A95F1F752C0828585
:10255000282F30E02F5F3F4F2932310574F012866B
:102560008185282F30E02F5F3F4F2330310514F055
:10257000118605C08F5F818702C08F5F8287169AA0
:10258000292F30E035952795359527953595279551
:1025900035952795179A20FF02C0289A01C02898E0
:1025A00021FF02C0299A01C0299822FF02C02A9A5D
:1025B00001C02A9823FF02C02B9A01C02B981798BC
:1025C000179A90FF02C0289A01C0289891FF02C074
:1025D000299A01C0299892FF02C02A9A01C02A981C
:1025E00093FF02C02B9A01C02B981798842F8A95CD
:1025F000F1F79991911117CFDF91CF910895AF9293
:10260000BF92CF92DF92EF92FF921F93CF93DF930F
:102610007C01C62FDC0112968D919C911397009737
:1026200049F0DC01ED91FC910680F781E02D0995E0
:10263000811120C1C33021F0C43009F48BC01CC10A
:10264000F70142815381C289D3891C161D0604F506
:1026500020E030E07091D3086091D4082730310534
:1026600018F48481958102C0872F962F4817590747
:1026700019F42F3F41F40AC02F5F3F4F32962C17B9
:102680003D0761F703C0CFEFC20F23C0C15021C087
:10269000CFEF1FC0C63031F028F0C090D308D090E3
:1026A000D40807C0880F991FF701E80FF91FC480ED
:1026B000D580C114D10461F0D601ED91FC91028066
:1026C000F381E02D62E0C6010995182F8111DFC06A
:1026D000C150CC230CF4D2C08C2F0C2E000C990BC3
:1026E000F70122893389821793070CF4D7C010E0D1
:1026F00007C1E881F9810480F581E02D60E0CE0119
:10270000099581111A82C7010497DC01ED91FC91B2
:102710000480F581E02D60E00995882309F4C2C0AA
:10272000F70132971082BEC083E0F6018283C701B1
:102730000497DC01ED91FC910480F581E02D63E0CC
:102740000995882309F4DCC0F701329793E0908360
:10275000182FD6C0F701428153812289338912167E
:102760001306F4F4C0E0D0E07091D3086091D4086F
:10277000C730D10518F48481958102C0872F962F28
:102780004817590729F4CF3FFFEFDF0739F408C096
:1027900021963296C217D30759F702C021960AC074
:1027A000C1E0D0E01216130614F4C0E0D0E0D195D9
:1027B000C195D1095E01AA0CBB1CAE0CBF1C1DC08B
:1027C000C090D308D090D40805C0D5011496CD9000
:1027D000DC901597C114D10461F0D601ED91FC9104
:1027E0000280F381E02D62E0C6010995182F811166
:1027F0006AC02196B2E0AB0EB11CDD230CF440C0E0
:10280000F70182899389C817D9070CF463C010E0D7
:1028100077C0E881F9810480F581E02D60E0CE0188
:10282000099581111A82C7010497DC01ED91FC9191
:102830000480F581E02D60E00995882309F44FC0FC
:10284000F701329710824BC083E0F6018283C70103
:102850000497DC01ED91FC910480F581E02D63E0AB
:102860000995882309F44CC0F701329793E09083CF
:10287000182F46C011E044C010E042C010E040C034
:1028800010E03EC0C090D308D090D40812CFF7011A
:10289000C281D381209709F02CCF04C099230CF07A
:1028A000F9CEF0CFD7011396DC92CE921297D601D3
:1028B000ED91FC910480F581E02D63E0C60109955E
:1028C000811132CF34CFF701C281D381209709F033
:1028D000A0CF05C0C730D10508F072CF76CFD701A1
:1028E0001396DC92CE921297D601ED91FC91048062
:1028F000F581E02D63E0C60109958111A5CFA7CF31
:10290000812FDF91CF911F91FF90EF90DF90CF90BB
:10291000BF90AF900895AF92BF92CF92DF92EF92A7
:10292000FF921F93CF93DF937C01C62FDC01169695
:102930008D919C911797009749F0DC01ED91FC91E6
:102940000680F781E02D099581111CC1C33021F06B
:10295000C43009F488C018C1F70146815781C6897F
:10296000D7891C161D0604F520E030E07091D308CD
:102970006091D4082730310518F48085918502C014
:10298000872F962F4817590719F42F3F41F40AC093
:102990002F5F3F4F32962C173D0761F703C0CFEFF3
:1029A000C20F23C0C15021C0CFEF1FC0C63031F0CD
:1029B00028F0C090D308D090D40807C0880F991F82
:1029C000F701E80FF91FC084D184C114D10461F06C
:1029D000D601ED91FC910280F381E02D62E0C60109
:1029E0000995182F8111DBC0C150CC230CF4CEC047
:1029F0008C2F0C2E000C990BF70126893789821732
:102A000093070CF4D5C010E003C1E881F98104807C
:102A1000F581E02D60E0CE01099581111A82D70180
:102A2000ED91FC910480F581E02D60E0C7010995EE
:102A3000882309F4C1C0F7011282BEC083E0D60129
:102A400012968C93D701ED91FC910480F581E02DD5
:102A500063E0C7010995882309F4DAC093E0F70120
:102A60009283182FD5C0D70116964D915C91179778
:102A700056962D913C91579712161306FCF4F701C8
:102A8000C0E0D0E07091D3086091D408C730D10580
:102A900018F48085918502C0872F962F4817590713
:102AA00029F4CF3FBFEFDB0739F408C021963296F7
:102AB000C217D30759F702C021960AC0C1E0D0E07F
:102AC0001216130614F4C0E0D0E0D195C195D109D7
:102AD0005E01AA0CBB1CAE0CBF1C1BC0C090D3086F
:102AE000D090D40803C0F501C084D184C114D104AE
:102AF00061F0D601ED91FC910280F381E02D62E05E
:102B0000C6010995182F811166C02196B2E0AB0E5F
:102B1000B11CDD23ECF1F70186899789C817D90725
:102B20000CF460C010E074C0E881F9810480F58184
:102B3000E02D60E0CE01099581111A82D701ED9157
:102B4000FC910480F581E02D60E0C70109958823A0
:102B500009F44DC0F70112824AC083E0D6011296F3
:102B60008C93D701ED91FC910480F581E02D63E019
:102B7000C7010995882309F44BC093E0F7019283BC
:102B8000182F46C011E044C010E042C010E040C021
:102B900010E03EC0C090D308D090D40816CFD70123
:102BA0001696CD91DC911797209709F02ECF04C08F
:102BB00099230CF0FBCEEECFF701D782C682D60167
:102BC000ED91FC910480F581E02D63E0C60109954B
:102BD000811134CF37CFF701C681D781209709F013
:102BE000A3CF05C0C730D10508F078CF7CCFD7017F
:102BF0001796DC92CE921697D601ED91FC91048047
:102C0000F581E02D63E0C60109958111A6CFA9CF1A
:102C1000812FDF91CF911F91FF90EF90DF90CF90A8
:102C2000BF90AF900895AF92BF92CF92DF92EF9294
:102C3000FF921F93CF93DF937C01C62FDC01129686
:102C40008D919C911397009749F0DC01ED91FC91D7
:102C50000680F781E02D0995811120C1C33021F054
:102C6000C43009F48BC01CC1F70142815381C68571
:102C7000D7851C161D0604F520E030E07091D308BE
:102C80006091D4082530310518F48481958102C003
:102C9000872F962F4817590719F42F3F41F40AC080
:102CA0002F5F3F4F32962C173D0761F703C0CFEFE0
:102CB000C20F23C0C15021C0CFEF1FC0C43031F0BC
:102CC00028F0C090D308D090D40807C0880F991F6F
:102CD000F701E80FF91FC480D580C114D10461F059
:102CE000D601ED91FC910280F381E02D62E0C601F6
:102CF0000995182F8111DFC0C150CC230CF4D2C02C
:102D00008C2F0C2E000C990BF70126853785821726
:102D100093070CF4D7C010E007C1E881F981048063
:102D2000F581E02D60E0CE01099581111A82C7017D
:102D30000497DC01ED91FC910480F581E02D60E0C9
:102D40000995882309F4C2C0F70132971082BEC0EA
:102D500083E0F6018283C7010497DC01ED91FC91C9
:102D60000480F581E02D63E00995882309F4DCC037
:102D7000F701329793E09083182FD6C0F701428174
:102D800053812685378512161306F4F4C0E0D0E08F
:102D90007091D3086091D408C530D10518F48481AE
:102DA000958102C0872F962F4817590729F4CF3FE6
:102DB000FFEFDF0739F408C021963296C217D30718
:102DC00059F702C021960AC0C1E0D0E012161306DE
:102DD00014F4C0E0D0E0D195C195D1095E01AA0CF0
:102DE000BB1CAE0CBF1C1DC0C090D308D090D40833
:102DF00005C0D5011496CD90DC901597C114D1046F
:102E000061F0D601ED91FC910280F381E02D62E04A
:102E1000C6010995182F81116AC02196B2E0AB0E48
:102E2000B11CDD230CF440C0F70186859785C817D7
:102E3000D9070CF463C010E077C0E881F981048001
:102E4000F581E02D60E0CE01099581111A82C7015C
:102E50000497DC01ED91FC910480F581E02D60E0A8
:102E60000995882309F44FC0F701329710824BC0AF
:102E700083E0F6018283C7010497DC01ED91FC91A8
:102E80000480F581E02D63E00995882309F44CC0A6
:102E9000F701329793E09083182F46C011E044C0A9
:102EA00010E042C010E040C010E03EC0C090D30827
:102EB000D090D40812CFF701C281D381209709F0B6
:102EC0002CCF04C099230CF0F9CEF0CFD701139684
:102ED000DC92CE921297D601ED91FC910480F5819F
:102EE000E02D63E0C6010995811132CF34CFF7019F
:102EF000C281D381209709F0A0CF05C0C530D1058C
:102F000008F072CF76CFD7011396DC92CE9212974B
:102F1000D601ED91FC910480F581E02D63E0C601BE
:102F200009958111A5CFA7CF812FDF91CF911F9157
:102F3000FF90EF90DF90CF90BF90AF900895AF9249
:102F4000BF92CF92DF92EF92FF921F93CF93DF93C6
:102F50007C01C62FDC0116968D919C9117970097E6
:102F600049F0DC01ED91FC910680F781E02D099597
:102F700081111CC1C33021F0C43009F488C018C1CC
:102F8000F70146815781C289D3891C161D0604F5B5
:102F900020E030E07091D3086091D40825303105ED
:102FA00018F48085918502C0872F962F48175907FE
:102FB00019F42F3F41F40AC02F5F3F4F32962C1770
:102FC0003D0761F703C0CFEFC20F23C0C15021C03E
:102FD000CFEF1FC0C43031F028F0C090D308D0909C
:102FE000D40807C0880F991FF701E80FF91FC084A4
:102FF000D184C114D10461F0D601ED91FC9102801D
:10300000F381E02D62E0C6010995182F8111DBC024
:10301000C150CC230CF4CEC08C2F0C2E000C990B7D
:10302000F70122893389821793070CF4D5C010E089
:1030300003C1E881F9810480F581E02D60E0CE01D3
:10304000099581111A82D701ED91FC910480F581D7
:10305000E02D60E0C7010995882309F4C1C0F7019C
:103060001282BEC083E0D60112968C93D701ED91F7
:10307000FC910480F581E02D63E0C7010995882368
:1030800009F4DAC093E0F7019283182FD5C0D70175
:1030900016964D915C91179752962D913C915397AE
:1030A00012161306FCF4F701C0E0D0E07091D308CB
:1030B0006091D408C530D10518F48085918502C08F
:1030C000872F962F4817590729F4CF3FBFEFDB070B
:1030D00039F408C021963296C217D30759F702C0B7
:1030E00021960AC0C1E0D0E01216130614F4C0E025
:1030F000D0E0D195C195D1095E01AA0CBB1CAE0CE4
:10310000BF1C1BC0C090D308D090D40803C0F501E9
:10311000C084D184C114D10461F0D601ED91FC9139
:103120000280F381E02D62E0C6010995182F81111C
:1031300066C02196B2E0AB0EB11CDD23ECF1F701C5
:1031400082899389C817D9070CF460C010E074C055
:10315000E881F9810480F581E02D60E0CE010995D8
:1031600081111A82D701ED91FC910480F581E02D47
:1031700060E0C7010995882309F44DC0F701128268
:103180004AC083E0D60112968C93D701ED91FC9151
:103190000480F581E02D63E0C7010995882309F4D7
:1031A0004BC093E0F7019283182F46C011E044C052
:1031B00010E042C010E040C010E03EC0C090D30814
:1031C000D090D40816CFD7011696CD91DC911797E1
:1031D000209709F02ECF04C099230CF0FBCEEECF40
:1031E000F701D782C682D601ED91FC910480F5816A
:1031F000E02D63E0C6010995811134CF37CFF70187
:10320000C681D781209709F0A3CF05C0C530D1056D
:1032100008F078CF7CCFD7011796DC92CE92169724
:10322000D601ED91FC910480F581E02D63E0C601AB
:1032300009958111A6CFA9CF812FDF91CF911F9141
:10324000FF90EF90DF90CF90BF90AF900895AF9236
:10325000BF92CF92DF92EF92FF921F93CF93DF93B3
:103260007C01C62FDC0112968D919C9113970097DB
:1032700049F0DC01ED91FC910680F781E02D099584
:10328000811120C1C13021F0C23009F48BC01CC1B2
:10329000F70142815381C085D1851C161D0604F5B6
:1032A00020E030E07091D3086091D40822303105DD
:1032B00018F48481958102C0872F962F48175907EB
:1032C00019F42F3F41F40AC02F5F3F4F32962C175D
:1032D0003D0761F703C0CFEFC20F23C0C15021C02B
:1032E000CFEF1FC0C13031F028F0C090D308D0908C
:1032F000D40807C0880F991FF701E80FF91FC48091
:10330000D580C114D10461F0D601ED91FC91028009
:10331000F381E02D62E0C6010995182F8111DFC00D
:10332000C150CC230CF4D2C08C2F0C2E000C990B66
:10333000F70120853185821793070CF4D7C010E080
:1033400007C1E881F9810480F581E02D60E0CE01BC
:10335000099581111A82C7010497DC01ED91FC9156
:103360000480F581E02D60E00995882309F4C2C04E
:10337000F70132971082BEC083E0F6018283C70155
:103380000497DC01ED91FC910480F581E02D63E070
:103390000995882309F4DCC0F701329793E0908304
:1033A000182FD6C0F701428153812085318512162E
:1033B0001306F4F4C0E0D0E07091D3086091D40813
:1033C000C230D10518F48481958102C0872F962FD1
:1033D0004817590729F4CF3FFFEFDF0739F408C03A
:1033E00021963296C217D30759F702C021960AC018
:1033F000C1E0D0E01216130614F4C0E0D0E0D1957D
:10340000C195D1095E01AA0CBB1CAE0CBF1C1DC02E
:10341000C090D308D090D40805C0D5011496CD90A3
:10342000DC901597C114D10461F0D601ED91FC91A7
:103430000280F381E02D62E0C6010995182F811109
:103440006AC02196B2E0AB0EB11CDD230CF440C083
:10345000F70180859185C817D9070CF463C010E087
:1034600077C0E881F9810480F581E02D60E0CE012C
:10347000099581111A82C7010497DC01ED91FC9135
:103480000480F581E02D60E00995882309F44FC0A0
:10349000F701329710824BC083E0F6018283C701A7
:1034A0000497DC01ED91FC910480F581E02D63E04F
:1034B0000995882309F44CC0F701329793E0908373
:1034C000182F46C011E044C010E042C010E040C0D8
:1034D00010E03EC0C090D308D090D40812CFF701BE
:1034E000C281D381209709F02CCF04C099230CF01E
:1034F000F9CEF0CFD7011396DC92CE921297D60177
:10350000ED91FC910480F581E02D63E0C601099501
:10351000811132CF34CFF701C281D381209709F0D6
:10352000A0CF05C0C230D10508F072CF76CFD70149
:103530001396DC92CE921297D601ED91FC91048005
:10354000F581E02D63E0C60109958111A5CFA7CFD4
:10355000812FDF91CF911F91FF90EF90DF90CF905F
:10356000BF90AF900895AF92BF92CF92DF92EF924B
:10357000FF921F93CF93DF937C01C62FDC01169639
:103580008D919C911797009749F0DC01ED91FC918A
:103590000680F781E02D099581111CC1C13021F011
:1035A000C23009F488C018C1F70146815781C4852B
:1035B000D5851C161D0604F520E030E07091D30877
:1035C0006091D4082230310518F48085918502C0BD
:1035D000872F962F4817590719F42F3F41F40AC037
:1035E0002F5F3F4F32962C173D0761F703C0CFEF97
:1035F000C20F23C0C15021C0CFEF1FC0C13031F076
:1036000028F0C090D308D090D40807C0880F991F25
:10361000F701E80FF91FC084D184C114D10461F00F
:10362000D601ED91FC910280F381E02D62E0C601AC
:103630000995182F8111DBC0C150CC230CF4CEC0EA
:103640008C2F0C2E000C990BF701248535858217E1
:1036500093070CF4D5C010E003C1E881F981048020
:10366000F581E02D60E0CE01099581111A82D70124
:10367000ED91FC910480F581E02D60E0C701099592
:10368000882309F4C1C0F7011282BEC083E0D601CD
:1036900012968C93D701ED91FC910480F581E02D79
:1036A00063E0C7010995882309F4DAC093E0F701C4
:1036B0009283182FD5C0D70116964D915C9117971C
:1036C0001C962D913C911D9712161306FCF4F701E0
:1036D000C0E0D0E07091D3086091D408C230D10529
:1036E00018F48085918502C0872F962F48175907B7
:1036F00029F4CF3FBFEFDB0739F408C0219632969B
:10370000C217D30759F702C021960AC0C1E0D0E022
:103710001216130614F4C0E0D0E0D195C195D1097A
:103720005E01AA0CBB1CAE0CBF1C1BC0C090D30812
:10373000D090D40803C0F501C084D184C114D10451
:1037400061F0D601ED91FC910280F381E02D62E001
:10375000C6010995182F811166C02196B2E0AB0E03
:10376000B11CDD23ECF1F70184859585C817D907D5
:103770000CF460C010E074C0E881F9810480F58128
:10378000E02D60E0CE01099581111A82D701ED91FB
:10379000FC910480F581E02D60E0C7010995882344
:1037A00009F44DC0F70112824AC083E0D601129697
:1037B0008C93D701ED91FC910480F581E02D63E0BD
:1037C000C7010995882309F44BC093E0F701928360
:1037D000182F46C011E044C010E042C010E040C0C5
:1037E00010E03EC0C090D308D090D40816CFD701C7
:1037F0001696CD91DC911797209709F02ECF04C033
:1038000099230CF0FBCEEECFF701D782C682D6010A
:10381000ED91FC910480F581E02D63E0C6010995EE
:10382000811134CF37CFF701C681D781209709F0B6
:10383000A3CF05C0C230D10508F078CF7CCFD70127
:103840001796DC92CE921697D601ED91FC910480EA
:10385000F581E02D63E0C60109958111A6CFA9CFBE
:10386000812FDF91CF911F91FF90EF90DF90CF904C
:10387000BF90AF900895AF92BF92DF92EF92FF9208
:103880000F931F93CF93DF938C01D62E82E068179E
:1038900009F4A0C0A6E06A1709F43BC1B1E06B13BC
:1038A00063C1F801A681B781109751F01696ED918A
:1038B000FC911797309721F08281843009F454C12C
:1038C000F801C485D5851C161D0604F520E030E0FE
:1038D0005091D3084091D4082230310518F48085E6
:1038E000918502C0852F942FA817B90719F42F3F8F
:1038F00041F40AC02F5F3F4F32962C173D0761F706
:1039000003C0CFEFC20F22C0C15020C0CFEF1EC0F6
:10391000C13031F028F0E090D308F090D40807C00F
:10392000880F991FF801E80FF91FE084F184E11472
:10393000F10459F0D701ED91FC910280F381E02D63
:1039400062E0C7010995811124C1C150CC230CF458
:103950000BC18C2F0C2E000C990BF801248535859A
:10396000821793070CF41CC1FFC0E881F981048021
:10397000F581E02D60E0CE01099581111A82D80110
:10398000ED91FC910480F581E02D60E0C80109957E
:10399000882309F409C1F801128206C183E0D70126
:1039A00012968C93D801ED91FC910480F581E02D65
:1039B00063E0C8010995882309F407C183E0F80191
:1039C000828303C116968D919C911797892B09F0DC
:1039D0003CC102C1F801A681B781109751F016963B
:1039E000ED91FC911797309721F08281843009F492
:1039F000BBC0F8012485358512161306F4F4C0E027
:103A0000D0E05091D3084091D408C230D10518F4C9
:103A10008085918502C0852F942FA817B90729F4B6
:103A2000CF3FFFEFDF0739F408C021963296C21767
:103A3000D30759F702C021960AC0C1E0D0E01216A0
:103A4000130614F4C0E0D0E0D195C195D1095E0110
:103A5000AA0CBB1CA00EB11E1CC0E090D308F090B5
:103A6000D40805C0D5011896ED90FC901997E11483
:103A7000F10459F0D701ED91FC910280F381E02D22
:103A800062E0C70109958111B1C02196B2E0AB0E89
:103A9000B11CDD230CF468C0F80184859585C81736
:103AA000D9070CF4ACC060C0E881F9810480F581CD
:103AB000E02D60E0CE01099581111A82D801ED91C7
:103AC000FC910480F581E02D60E0C8010995882310
:103AD00009F49AC0F801128297C083E0D7011296C8
:103AE0008C93D801ED91FC910480F581E02D63E089
:103AF000C8010995882309F496C083E0F801828300
:103B000092C016968D919C911797892B09F09DC0B4
:103B100091C0D8011696CD91DC911797209721F18D
:103B2000EE81FF81309701F182818330E9F4E881F1
:103B3000F9810480F581E02D60E0CE0109958111C5
:103B40001A82D801ED91FC910480F581E02D60E0AE
:103B5000C8010995882311F0F8011282D80117963F
:103B60001C921E9216976FC0F8018681978100976C
:103B700049F0DC01ED91FC910680F781E02D6D2D7F
:103B8000099564C080E062C0E090D308F090D4084A
:103B9000CECEF801C681D781209709F0E6CE04C0C9
:103BA00099230CF0B5CEF0CFD8011796FC92EE9287
:103BB0001697D701ED91FC910480F581E02D63E02B
:103BC000C70109958111EACEEDCEF801A681B78132
:103BD000109709F0F7CE39C0ED91FC91119706804E
:103BE000F781E02D64E0CD0109952DC0D80116962E
:103BF000CD91DC911797209709F056CF05C0C230C0
:103C0000D10508F02ACF2ECFF801F782E682D7013E
:103C1000ED91FC910480F581E02D63E0C7010995E9
:103C200081115BCF5ECFF801A681B781109709F0B3
:103C300068CF0BC0ED91FC9111970680F781E02DC4
:103C400064E0CD01099581E001C081E0DF91CF9171
:103C50001F910F91FF90EF90DF90BF90AF9008956C
:103C6000AF92BF92DF92EF92FF920F931F93CF9389
:103C7000DF938C01D62E82E0681709F4A3C0A6E07A
:103C80006A1709F441C1B1E06B1367C1F801A28161
:103C9000B381109751F01696ED91FC9117973097DC
:103CA00021F08281843009F458C1F801C085D185A2
:103CB0001C161D0604F520E030E05091D308409119
:103CC000D4082230310518F48481958102C0852FF3
:103CD000942FA817B90719F42F3F41F40AC02F5F9A
:103CE0003F4F32962C173D0761F703C0CFEFC20F4D
:103CF00022C0C15020C0CFEF1EC0C13031F028F02B
:103D0000E090D308F090D40807C0880F991FF801FD
:103D1000E80FF91FE480F580E114F10459F0D701B0
:103D2000ED91FC910280F381E02D62E0C7010995DD
:103D300081112AC1C150CC230CF40FC18C2F0C2E41
:103D4000000C990BF80120853185821793070CF43C
:103D500022C103C1E881F9810480F581E02D60E092
:103D6000CE01099581111A82C8010497DC01ED91F9
:103D7000FC910480F581E02D60E00995882309F429
:103D80000EC1F801329710820AC183E0F7018283E5
:103D9000C8010497DC01ED91FC910480F581E02DD0
:103DA00063E00995882309F40BC183E0F801329799
:103DB000808306C116968D919C911797892B09F0E7
:103DC0003FC105C1F801A281B381109751F0169649
:103DD000ED91FC911797309721F08281843009F49E
:103DE000BCC0F8012085318512161306F4F4C0E03A
:103DF000D0E05091D3084091D408C230D10518F4D6
:103E00008481958102C0852F942FA817B90729F4C2
:103E1000CF3FFFEFDF0739F408C021963296C21773
:103E2000D30759F702C021960AC0C1E0D0E01216AC
:103E3000130614F4C0E0D0E0D195C195D1095E011C
:103E4000AA0CBB1CA00EB11E1CC0E090D308F090C1
:103E5000D40805C0D5011496ED90FC901597E11497
:103E6000F10459F0D701ED91FC910280F381E02D2E
:103E700062E0C70109958111B4C02196B2E0AB0E92
:103E8000B11CDD230CF469C0F80180859185C81749
:103E9000D9070CF4AFC061C0E881F9810480F581D5
:103EA000E02D60E0CE01099581111A82C8010497C6
:103EB000DC01ED91FC910480F581E02D60E0099535
:103EC000882309F49CC0F8013297108298C083E0DF
:103ED000F7018283C8010497DC01ED91FC91048015
:103EE000F581E02D63E00995882309F497C083E00C
:103EF000F8013297808392C016968D919C91179706
:103F0000892B09F09DC091C0F801C281D38120970F
:103F100021F1EE81FF81309701F182818330E9F454
:103F2000E881F9810480F581E02D60E0CE010995FA
:103F300081111A82C8010497DC01ED91FC91048083
:103F4000F581E02D60E00995882319F0F80132979A
:103F50001082F8011382128271C0D80112968D91DD
:103F60009C911397009749F0DC01ED91FC9106803C
:103F7000F781E02D6D2D099564C080E062C0E0906E
:103F8000D308F090D408C8CEF801C281D38120971D
:103F900009F0E0CE04C099230CF0AFCEF0CFD801E9
:103FA0001396FC92EE921297D701ED91FC9104804A
:103FB000F581E02D63E0C70109958111E6CEE8CED9
:103FC000F801A281B381109709F0F4CE39C0ED91C8
:103FD000FC9111970680F781E02D64E0CD010995F1
:103FE0002DC0D8011296CD91DC911397209709F03E
:103FF00053CF05C0C230D10508F027CF2BCFF80131
:10400000F382E282D701ED91FC910480F581E02DED
:1040100063E0C701099581115ACF5CCFF801A281F5
:10402000B381109709F068CF0BC0ED91FC91119707
:104030000680F781E02D64E0CD01099581E001C0A3
:1040400081E0DF91CF911F910F91FF90EF90DF9072
:10405000BF90AF900895FC016F3F09F040C04F3F03
:1040600009F03DC08085982F9E7F9087867088607C
:104070001698179A289829982A982B981798179A7B
:10408000289881FF02C0299A01C0299882FF02C0A6
:104090002A9A01C02A982B9A179886EF8A95F1F7E9
:1040A0008085982F9D7F9087857088601698179AD5
:1040B000289829982A982B981798179A80FF02C059
:1040C000289A01C02898299882FF02C02A9A01C024
:1040D0002A982B9A179886EF8A95F1F7089580858C
:1040E00081FD1CC082608087877088601698179A4F
:1040F000289829982A982B981798179A80FF02C019
:10410000289A01C02898299A82FF02C02A9A01C0E1
:104110002A982B9A179886EF8A95F1F7808591E077
:1041200080FF90E0291326C08E7F222311F0808724
:1041300002C0816080878085877088601698179A92
:10414000289829982A982B981798179A80FF02C0C8
:10415000289A01C0289881FF02C0299A01C0299895
:1041600082FF02C02A9A01C02A982B9A179886EFDC
:104170008A95F1F7CF010190F081E02D0280F38163
:10418000E02D09950895CF93DF93FC019093D60815
:104190008093D508128213821782168215861486A0
:1041A0008CEF91E09183808388E092E09583848313
:1041B000108A118A158A148A138E128E8AEE91E063
:1041C0009787868786EF91E0938B828BAF01445E61
:1041D0005F4F168E178E13A212A213AA12AA8EE791
:1041E00091E0958F848F8AE891E091A380A316AA2D
:1041F00017AA53AF42AF8CE691E095AB84AB88E74A
:1042000091E091AF80AF9F01245C3F4F16AE83E0F9
:1042100087AFDF01AE5BBF4F11963C932E93149690
:104220008BEB99E011969C938E93129711961C92AA
:104230001E9214968FEF8C938AE591E095AF84AF30
:10424000189786E691E011969C938E931B961C928C
:10425000129787E113968C93139780E591E011965E
:104260009C938E9314961D921D921C9212971496F5
:104270001C921E921397CF01C49659F095A384A364
:1042800081E090E093AB82AB2115310509F49BC12D
:104290000BC021153105B1F082A993A98730910592
:1042A0005CF58730910548F4880F991FDF01A80F4E
:1042B000B91F95963C932E93949782A993A9019642
:1042C00093AB82AB9F01275B3F4FB1F082A993A9CB
:1042D000873091058CF48730910548F4880F991F39
:1042E000DF01A80FB91F95963C932E93949782A94E
:1042F00093A9019693AB82ABA0910D09B0910E09E1
:1043000012962D913C911397B901DF01AC5BBF4F21
:104310002D933C9381E02115310509F080E08195D2
:10432000DF01A85BBF4F8C93672B91F0803118F0B1
:104330008091D20804C0D901A80FB11D8C91DF0172
:10434000AA5BBF4F0D90BC91A02D90E08D939C93E4
:10435000DF01AC5ABF4F1C92129713961C92139711
:1043600017961C921E921697EF01C65ADF4F1B86B6
:104370001A8688ED91E011969C938E9384EE91E0DD
:1043800015969C938E9314972E96188222971B82D3
:1043900080E991E0998388838CE991E09D838C8307
:1043A0002896188286E022978B8382EA91E099838F
:1043B00088838EEA91E09D838C83289618828CE016
:1043C00022978B8384EB91E09983888380EC91E042
:1043D0009D838C832896188282E122978B8386ECBA
:1043E00091E09983888382ED91E09D838C8354963C
:1043F00069F06E97B983A88381E090E09B878A87F4
:104400009F0124593F4F09F4EBC012C09F0124596A
:104410003F4F19F1DF01A65ABF4F1A968D919C911B
:104420001B97853091050CF065C08530910548F4E7
:10443000880F991F8E0F9F1FDC01A65ABF4F2D9327
:104440003C93DF01A65ABF4F1A968D919C911B9702
:1044500001961B969C938E931A979F012E583F4F5F
:1044600019F1DF01A65ABF4F1A968D919C911B97A7
:10447000853091050CF03EC08530910548F4880FD9
:10448000991F8E0F9F1FDC01A65ABF4F2D933C939F
:10449000DF01A65ABF4F1A968D919C911B970196EA
:1044A0001B969C938E931A979F0128583F4F11F1AA
:1044B000DF01A65ABF4F1A968D919C911B978530AC
:1044C0009105C4F48530910548F4880F991F8E0F2B
:1044D0009F1FDC01A65ABF4F2D933C93DF01A65AC4
:1044E000BF4F1A968D919C911B9701961B969C939A
:1044F0008E931A9741155105B9F0878D811153C0DC
:10450000828D878F50C08230910548F4880F991FA3
:10451000DF01A80FB91F57965C934E935697828D73
:10452000938D0196938F828F9F012E5A3F4FD9F022
:10453000D90113968C9181113DC0828DD9011396BA
:104540008C9338C08230910548F4880F991FDF01A1
:10455000A80FB91F57963C932E935697828D938D33
:104560000196938F828FDF01A158BF4F1D921C923D
:104570009F01225F3F4FC9F1848595858230910567
:10458000A4F58230910548F4880F991FDF01A80F28
:10459000B91F19963C932E9318978485958501969B
:1045A0009587848722C0828D938D823091050CF08F
:1045B000BBCFA9CF828D938D82309105A4F6C2CF57
:1045C00082A993A988CE9F01275B3F4FC9F794CE5C
:1045D000DF01A65ABF4F1A968D919C911B974CCF25
:1045E0009F012E583F4FA1F75FCFDF91CF910895E4
:1045F000FC0104C09EBD0DB407FEFDCF9191911149
:10460000F9CF0895249A259A2698279A81E58CBD9A
:1046100081E08DBD08950F931F93CF93DF93CDB7A6
:10462000DEB769970FB6F894DEBF0FBECDBF8C0121
:1046300084EF91E024EF31E0F9013197F1F7019730
:10464000D9F7179A289A299A2A982B98179884E1CB
:1046500090E50197F1F7179A289A299A2A982B98AA
:10466000179884EF91E00197F1F7179A289A299A01
:104670002A982B98179888EC90E00197F1F7179AF1
:104680002898299A2A982B9817981698179A289854
:10469000299A2A982B981798179A289829982A982F
:1046A0002B9A179886EF982F9A95F1F71698179AE4
:1046B000289829982A982B981798179A289A299811
:1046C0002A982B981798982F9A95F1F7E0EAFFE02F
:1046D000DF011197F1F71698179A289829982A98C8
:1046E0002B981798179A2898299A2A982B981798F0
:1046F000982F9A95F1F73197F1F7F801908590612D
:10470000977F90871698179A289829982A982B9817
:104710001798179A2898299A2A9A2B9817988A9561
:10472000F1F7808584608087877088601698179A73
:10473000289829982A982B981798179A80FF02C0D2
:10474000289A01C0289881FF02C0299A01C029989F
:104750002A9A2B9A179886EF8A95F1F7CE0101963F
:1047600029E1FC0111922A95E9F748E150E060EB5C
:1047700077E00E940B42F801118684E082878091E5
:1047800009018C5F1698282F206830E03595279511
:10479000359527953595279535952795179A20FFB7
:1047A00002C0289A01C0289821FF02C0299A01C09E
:1047B000299822FF02C02A9A01C02A982B9A17989A
:1047C000179A80FF02C0289A01C0289881FF02C072
:1047D000299A01C0299882FF02C02A9A01C02A980A
:1047E00083FF02C02B9A01C02B98179886EF8A95F9
:1047F000F1F78981882309F4F6C0DE01129646EFAD
:1048000050E08A3009F051C0F8012185822F90E0F4
:104810000196039724F011869285852F08C081E0C8
:10482000820FF80181879285823008F0852FE82F6A
:10483000F0E0E75FFE4F8081890F1698282F2068EF
:1048400030E03595279535952795359527953595FC
:104850002795179A20FF02C0289A01C0289821FFA7
:1048600002C0299A01C0299822FF02C02A9A01C0D9
:104870002A982B9A1798179A80FF02C0289A01C08D
:10488000289881FF02C0299A01C0299882FF02C09E
:104890002A9A01C02A9883FF02C02B9A01C02B9844
:1048A0001798842F8A95F1F79BC08D3009F043C08B
:1048B000F80112868185823008F0852FE82FF0E01C
:1048C000E75FFE4F20811698822F806890E09595D3
:1048D0008795959587959595879595958795179A39
:1048E00080FF02C0289A01C0289881FF02C0299A3F
:1048F00001C0299882FF02C02A9A01C02A982B9AE7
:104900001798179A20FF02C0289A01C0289821FF03
:1049100002C0299A01C0299822FF02C02A9A01C028
:104920002A9823FF02C02B9A01C02B981798842F36
:104930008A95F1F755C0F8019285292F30E02F5F55
:104940003F4F293231057CF012869185292F30E0C6
:104950002F5F3F4F2330310514F0118607C09F5F52
:10496000F801918703C09F5FF8019287169A282F5C
:1049700030E03595279535952795359527953595CB
:104980002795179A20FF02C0289A01C0289821FF76
:1049900002C0299A01C0299822FF02C02A9A01C0A8
:1049A0002A9823FF02C02B9A01C02B981798179AB8
:1049B00080FF02C0289A01C0289881FF02C0299A6E
:1049C00001C0299882FF02C02A9A01C02A9883FF59
:1049D00002C02B9A01C02B981798842F8A95F1F763
:1049E0008D9181110ECF80910101882309F4F6C0C9
:1049F000A2E0B1E046EF50E08A3009F051C0F80182
:104A00002185822F90E00196039724F011869285EC
:104A1000852F08C081E0820FF8018187928582305E
:104A200008F0852FE82FF0E0E75FFE4F8081890FC7
:104A30001698282F206830E03595279535952795CD
:104A40003595279535952795179A20FF02C0289A06
:104A500001C0289821FF02C0299A01C0299822FF8D
:104A600002C02A9A01C02A982B9A1798179A80FF99
:104A700002C0289A01C0289881FF02C0299A01C06B
:104A8000299882FF02C02A9A01C02A9883FF02C097
:104A90002B9A01C02B981798842F8A95F1F79BC009
:104AA0008D3009F043C0F80112868185823008F00C
:104AB000852FE82FF0E0E75FFE4F20811698822FC8
:104AC000806890E0959587959595879595958795BC
:104AD00095958795179A80FF02C0289A01C028985B
:104AE00081FF02C0299A01C0299882FF02C02A9A38
:104AF00001C02A982B9A1798179A20FF02C0289A6B
:104B000001C0289821FF02C0299A01C0299822FFDC
:104B100002C02A9A01C02A9823FF02C02B9A01C022
:104B20002B981798842F8A95F1F755C0F801928534
:104B3000292F30E02F5F3F4F293231057CF012865C
:104B40009185292F30E02F5F3F4F2330310514F03E
:104B5000118607C09F5FF801918703C09F5FF8012E
:104B60009287169A282F30E0359527953595279509
:104B70003595279535952795179A20FF02C0289AD5
:104B800001C0289821FF02C0299A01C0299822FF5C
:104B900002C02A9A01C02A9823FF02C02B9A01C0A2
:104BA0002B981798179A80FF02C0289A01C028985E
:104BB00081FF02C0299A01C0299882FF02C02A9A67
:104BC00001C02A9883FF02C02B9A01C02B98179826
:104BD000842F8A95F1F78D9181110ECF81E0F80134
:104BE0008187828780910A018F5F1698282F20681D
:104BF00030E0359527953595279535952795359549
:104C00002795179A20FF02C0289A01C0289821FFF3
:104C100002C0299A01C0299822FF02C02A9A01C025
:104C20002A982B9A1798179A80FF02C0289A01C0D9
:104C3000289881FF02C0299A01C0299882FF02C0EA
:104C40002A9A01C02A9883FF02C02B9A01C02B9890
:104C5000179886EF8A95F1F748E150E06AE977E026
:104C6000CE0101960E940B428981882309F4F6C087
:104C7000DE01129646EF50E08A3009F051C0F8018B
:104C80002185822F90E00196039724F0118692856A
:104C9000852F08C081E0820FF801818792858230DC
:104CA00008F0852FE82FF0E0E75FFE4F8081890F45
:104CB0001698282F206830E035952795359527954B
:104CC0003595279535952795179A20FF02C0289A84
:104CD00001C0289821FF02C0299A01C0299822FF0B
:104CE00002C02A9A01C02A982B9A1798179A80FF17
:104CF00002C0289A01C0289881FF02C0299A01C0E9
:104D0000299882FF02C02A9A01C02A9883FF02C014
:104D10002B9A01C02B981798842F8A95F1F79BC086
:104D20008D3009F043C0F80112868185823008F089
:104D3000852FE82FF0E0E75FFE4F20811698822F45
:104D4000806890E095958795959587959595879539
:104D500095958795179A80FF02C0289A01C02898D8
:104D600081FF02C0299A01C0299882FF02C02A9AB5
:104D700001C02A982B9A1798179A20FF02C0289AE8
:104D800001C0289821FF02C0299A01C0299822FF5A
:104D900002C02A9A01C02A9823FF02C02B9A01C0A0
:104DA0002B981798842F8A95F1F755C0F8019285B2
:104DB000292F30E02F5F3F4F293231057CF01286DA
:104DC0009185292F30E02F5F3F4F2330310514F0BC
:104DD000118607C09F5FF801918703C09F5FF801AC
:104DE0009287169A282F30E0359527953595279587
:104DF0003595279535952795179A20FF02C0289A53
:104E000001C0289821FF02C0299A01C0299822FFD9
:104E100002C02A9A01C02A9823FF02C02B9A01C01F
:104E20002B981798179A80FF02C0289A01C02898DB
:104E300081FF02C0299A01C0299882FF02C02A9AE4
:104E400001C02A9883FF02C02B9A01C02B981798A3
:104E5000842F8A95F1F78D9181110ECF80910101F8
:104E6000882309F4F6C0A2E0B1E046EF50E08A30B2
:104E700009F051C0F8012185822F90E00196039737
:104E800024F011869285852F08C081E0820FF801F9
:104E900081879285823008F0852FE82FF0E0E75F68
:104EA000FE4F8081890F1698282F206830E03595B5
:104EB0002795359527953595279535952795179AF3
:104EC00020FF02C0289A01C0289821FF02C0299A19
:104ED00001C0299822FF02C02A9A01C02A982B9A61
:104EE0001798179A80FF02C0289A01C0289881FF5E
:104EF00002C0299A01C0299882FF02C02A9A01C0E3
:104F00002A9883FF02C02B9A01C02B981798842FF0
:104F10008A95F1F79BC08D3009F043C0F8011286E5
:104F20008185823008F0852FE82FF0E0E75FFE4FA3
:104F300020811698822F806890E0959587959595A9
:104F400087959595879595958795179A80FF02C0C7
:104F5000289A01C0289881FF02C0299A01C0299887
:104F600082FF02C02A9A01C02A982B9A1798179A92
:104F700020FF02C0289A01C0289821FF02C0299A68
:104F800001C0299822FF02C02A9A01C02A9823FF53
:104F900002C02B9A01C02B981798842F8A95F1F79D
:104FA00055C0F8019285292F30E02F5F3F4F2932FD
:104FB00031057CF012869185292F30E02F5F3F4F1D
:104FC0002330310514F0118607C09F5FF8019187E7
:104FD00003C09F5FF8019287169A282F30E035951D
:104FE0002795359527953595279535952795179AC2
:104FF00020FF02C0289A01C0289821FF02C0299AE8
:1050000001C0299822FF02C02A9A01C02A9823FFD2
:1050100002C02B9A01C02B981798179A80FF02C0E4
:10502000289A01C0289881FF02C0299A01C02998B6
:1050300082FF02C02A9A01C02A9883FF02C02B9ADD
:1050400001C02B981798842F8A95F1F78D918111C3
:105050000ECFF801128611861698179A289829986B
:105060002A982B981798179A2898299A2A982B9853
:10507000179886EF8A95F1F780EA9FE00197F1F79C
:1050800069960FB6F894DEBF0FBECDBFDF91CF910A
:105090001F910F910895AF92BF92CF92DF92EF923E
:1050A000FF920F931F93CF93DF936C0180E692E002
:1050B000E2E1F4E0DF019C011D9221503040E1F774
:1050C000E2E7F6E0DF019C011D9221503040E1F75C
:1050D00083E085BD81E080936E0094DAC6019BDA9F
:1050E0000E946F04789480E29EE424EF31E0F9019D
:1050F0003197F1F70197D9F7C2E1D4E08FE0E8E109
:10510000F1E0DE0101900D928A95E1F721E02C8F0C
:1051100083E0888B898B8C8B92E09F8B198E188E05
:105120000FE310E01B8F0A8F2093560580934A05EA
:1051300080934B0580934E059093510560E470E099
:1051400070935305609352054FE750E05093550517
:10515000409354053FE0E7E2F1E0A2E7B6E00190BA
:105160000D923A95E1F720938E0680938206809304
:105170008306809386069093890610928B06109280
:105180008A0610938D0600938C062093B6078093B1
:10519000AA078093AB078093AE079093B1077093F3
:1051A000B3076093B2075093B5074093B4071698BE
:1051B000179A289829982A982B981798179A289A16
:1051C00029982A982B98179826EF822F8A95F1F71D
:1051D00080EA9FE0FC013197F1F7D6011A961C9204
:1051E0001A9719961C921698179A289829982A980F
:1051F0002B981798179A2898299A2A982B981798D5
:105200002A95F1F70197F1F780912A0990912B09DE
:1052100018161906FCF4EEE1F9E0C0E0D0E0509178
:10522000D3084091D408C230D10518F420853185C7
:1052300002C0252F342F232B29F4CF3FBFEFDB07EC
:1052400039F408C021963296C817D90761F702C011
:1052500021960AC0C1E0D0E01816190614F4C0E087
:10526000D0E0D195C195D109CE01880F991FFC01DD
:10527000E25EF64F7F010F2EFEE1AF2EF9E0BF2E6A
:10528000F02D1CC00091D3081091D40805C0D7019F
:1052900018960D911C9119970115110559F0D80117
:1052A000ED91FC910280F381E02D62E0C801099547
:1052B00081114CC02196B2E0EB0EF11CDD23B4F15C
:1052C000F50184859585C817D9070CF447C02EC011
:1052D000E881F9810480F581E02D60E0CE01099537
:1052E00081111A82E0911E09F0911F090480F58155
:1052F000E02D60E08EE199E009958823A1F11092FC
:10530000200931C083E0D80112968C93E0911E09E8
:10531000F0911F090480F581E02D63E08EE199E0B2
:105320000995882319F083E080932009809124094E
:1053300090912509009739F1DC01ED91FC910190E4
:10534000F081E02D40E0B60109951DC0C09124090F
:10535000D0912509209709F0BBCF05C0C230D105F7
:1053600008F090CF94CF1093250900932409D80119
:10537000ED91FC910480F581E02D63E0C801099571
:105380008111C0CFC3CFDF91CF911F910F91FF90BB
:10539000EF90DF90CF90BF90AF900895683069F0A4
:1053A00028F46230A1F0643061F013C0603459F029
:1053B000603829F0603269F408C083E0089584E021
:1053C000089581E0089582E0089585E0089586E0DB
:1053D000089580E008952F923F924F925F926F92CE
:1053E0007F928F929F92AF92BF92CF92DF92EF9275
:1053F000FF920F931F93CF93DF93CDB7DEB7CB53BD
:10540000D1400FB6F894DEBF0FBECDBFC75CDE4FF4
:105410006883C953D140862F90E08230910560F4B3
:1054200028E231E0829FF001839FF00D929FF00D02
:105430001124EE5DFB4F02C0EBE2F2E088E291E066
:10544000DE01119601900D920197E1F7C75DDE4FE5
:10545000188219821A821B82C952D140C75CDE4F62
:105460003881C953D1403F5F832F90E021E001C0D4
:10547000220F3A95EAF7C55CDE4F2883CB53D14023
:10548000FE013D9660E070E00F2EF3E54F2EF3E055
:105490005F2EF02D08E713E0B02ED801AB2EC65CCE
:1054A000DE4F1882CA53D1401C01BFEF2B1A3B0AB2
:1054B0000F2EF4EAEF2EF3E0FF2EF02D0F2EF1EC7D
:1054C0008F2E912CF02D0F2EF9EC6F2E712CF02DCC
:1054D000CA01AF01DC016830710528F4FA0180814E
:1054E0008111A9C4CBC4F2018485882309F4C6C400
:1054F0000D911D912D913C911397C75DDE4F08834F
:1055000019832A833B83C952D1408201A4C44D2D03
:1055100050E04430510508F0ABC4FA01EE0FFF1F14
:10552000E40FF51FEE0FFF1FE00FF11F80818823AE
:1055300009F440C18181823061F018F4813039F082
:1055400075C0833051F0843009F440C06FC08C9135
:1055500072C011968C9111976EC08C91803CC9F0ED
:1055600058F48039B1F018F4803849F512C0803A07
:1055700081F0803B21F50DC0813F99F028F4803DFA
:1055800061F0803E91F01BC0823FA1F0833F49F063
:1055900016C012968C91129717C013968C91139780
:1055A0004AC011968C9111970FC012968C91129748
:1055B0008F770AC011968C9111978F7705C0C65CC2
:1055C000DE4F8881CA53D1408F7735C08C91803AA5
:1055D00061F028F4803849F0803909F506C0803E32
:1055E00041F0823F89F0803BD1F413968C91139760
:1055F0001BC012968D919C911397880F892F881F3D
:10560000990B91958F7710C011968D919C9112975F
:10561000880F892F881F990B91958F7705C0C65CDD
:10562000DE4F8881CA53D1408F7705C0C65CDE4FFC
:105630008881CA53D1409081933031F0943039F051
:10564000923039F4848105C09481890F02C094811D
:10565000891B4430510558F49A01220F331FF90178
:10566000E40FF51FEE0FFF1FE00FF11F02C0EB2D3F
:10567000FA2D9281923081F018F4913039F094C073
:10568000933081F0943009F451C08EC0C75DDE4F75
:105690008883C952D14088C0C65DDE4F8883CA5214
:1056A000D14082C0C75DDE4F9881C952D140903C45
:1056B000D9F068F49039C1F020F4903809F074C042
:1056C00013C0903A89F0903B09F06EC00DC0913F35
:1056D000B9F028F4903D71F0903EC1F065C0923F62
:1056E000E9F0933F69F060C0C55DDE4F8883CB521F
:1056F000D1405AC0C45DDE4F8883CC52D14054C0E3
:10570000C65DDE4F8883CA52D1404EC090E0C55D71
:10571000DE4F99838883CB52D14046C090E0C65D6E
:10572000DE4F99838883CA52D1403EC0C75DDE4FA9
:105730009881C952D140903A61F028F4903849F0EC
:10574000903991F506C0903E51F0923FD9F0903BD0
:1057500059F5C45DDE4F8883CC52D14025C0F0E8B6
:105760008F9FC0011124C55DDE4F28813981CB5246
:10577000D140822B932BC55DDE4F99838883CB521A
:10578000D14012C020E8829FC0011124C65DDE4FC7
:1057900028813981CA52D140822B932BC65DDE4FBE
:1057A00099838883CA52D140D3948D2D90E0049779
:1057B0000CF4ADCECB5CDE4F48815981C553D1404E
:1057C00039E02316310454F480917E03C55CDE4F2A
:1057D0009881CB53D140892B80937E03C75CDE4FE9
:1057E0000881C953D140002321F0013009F48DC153
:1057F00019C3C75DDE4FD880C952D140DD201CF5EA
:10580000ED2DE07FE03F09F4ED2D0E2F10E020E0BC
:1058100030E0CB5CDE4F088319832A833B83C5537A
:10582000D140F801E058F109E038F10530F4EA5BC5
:10583000FF4F0C94EA4182E009C080E007C083E09A
:1058400005C08FEF03C080E001C081E0082E000C8E
:10585000990B1FEE1D1538F0C65DDE4F2881CA5228
:10586000D1402D2901C02D2DE0E8ED0DE136B8F530
:10587000F70133A1321709F469C023A331A13F5FB7
:10588000313208F030E0F70112A1131741F011A1F5
:10589000E12FF0E0EC55FC4F2083F70131A320917C
:1058A0000401CC5CDE4F2883C453D140CC5CDE4F76
:1058B0003881C453D140F4012081E32FF0E0E0951A
:1058C000F09530E02E233F23F4012083CC5CDE4FA3
:1058D0002881C453D1403081232B208337C030E14D
:1058E0003D0D383010F4F70113A2F70131A13F5FED
:1058F000313208F030E0F70112A1131741F011A185
:10590000E12FF0E0EC55FC4F2083F70131A320910B
:105910000401CD5CDE4F2883C353D140CD5CDE4F04
:105920003881C353D140F4012081E32FF0E0E095AA
:10593000F09530E02E233F23F4012083CD5CDE4F31
:105940002881C353D1403081232B2083823091059D
:105950000CF473C0C75DDE4F2881C952D140203C92
:10596000C9F058F42039B1F018F4203899F512C074
:10597000203A81F0203B71F50DC0213FB9F028F4A9
:10598000203D71F0203EC1F025C0223FE1F0233FD1
:1059900069F020C0C55DDE4F3881CB52D1401BC0BD
:1059A000C45DDE4F3881CC52D14016C0C65DDE4F9B
:1059B0003881CA52D1400FC0C55DDE4F3881CB520D
:1059C000D1403F7708C0C65DDE4F3881CA52D14012
:1059D0003F7701C030E03F77F70121A12F5F2132EF
:1059E00008F020E0F70112A1121741F011A1E12FF8
:1059F000F0E0EC55FC4F3083F70121A32091040126
:105A0000CE5CDE4F2883C253D140CE5CDE4F38815E
:105A1000C253D140F4012081E32FF0E0E095F095EE
:105A200030E02E233F23F4012083CE5CDE4F28811B
:105A3000C253D1403081232B208303970CF4F2C151
:105A4000C75DDE4F8881C952D140803A61F028F4A9
:105A5000803849F0803939F506C0803E51F0823FE8
:105A6000A9F0803B01F5C45DDE4F8881CC52D14066
:105A70001BC0C55DDE4F88819981CB52D140880F14
:105A8000892F881F990B91958F770EC0C65DDE4FC9
:105A900088819981CA52D140880F892F881F990B1C
:105AA00091958F7701C080E08F77F70191A19F5F7B
:105AB000913208F090E0F70122A1291741F021A1CD
:105AC000E22FF0E0EC55FC4F8083F70191A3809129
:105AD0000401CF5CDE4F8883C153D140CF5CDE4FE1
